{
  "address": "0xFA39019319e36F191d30AC52D945b2BFC34758f9",
  "abi": [
    {
      "inputs": [],
      "stateMutability": "nonpayable",
      "type": "constructor"
    },
    {
      "inputs": [],
      "name": "ApprovalCallerNotOwnerNorApproved",
      "type": "error"
    },
    {
      "inputs": [],
      "name": "ApprovalQueryForNonexistentToken",
      "type": "error"
    },
    {
      "inputs": [],
      "name": "BalanceQueryForZeroAddress",
      "type": "error"
    },
    {
      "inputs": [],
      "name": "MintERC2309QuantityExceedsLimit",
      "type": "error"
    },
    {
      "inputs": [],
      "name": "MintToZeroAddress",
      "type": "error"
    },
    {
      "inputs": [],
      "name": "MintZeroQuantity",
      "type": "error"
    },
    {
      "inputs": [],
      "name": "OwnerQueryForNonexistentToken",
      "type": "error"
    },
    {
      "inputs": [],
      "name": "OwnershipNotInitializedForExtraData",
      "type": "error"
    },
    {
      "inputs": [],
      "name": "TransferCallerNotOwnerNorApproved",
      "type": "error"
    },
    {
      "inputs": [],
      "name": "TransferFromIncorrectOwner",
      "type": "error"
    },
    {
      "inputs": [],
      "name": "TransferToNonERC721ReceiverImplementer",
      "type": "error"
    },
    {
      "inputs": [],
      "name": "TransferToZeroAddress",
      "type": "error"
    },
    {
      "inputs": [],
      "name": "URIQueryForNonexistentToken",
      "type": "error"
    },
    {
      "anonymous": false,
      "inputs": [
        {
          "indexed": true,
          "internalType": "address",
          "name": "owner",
          "type": "address"
        },
        {
          "indexed": true,
          "internalType": "address",
          "name": "approved",
          "type": "address"
        },
        {
          "indexed": true,
          "internalType": "uint256",
          "name": "tokenId",
          "type": "uint256"
        }
      ],
      "name": "Approval",
      "type": "event"
    },
    {
      "anonymous": false,
      "inputs": [
        {
          "indexed": true,
          "internalType": "address",
          "name": "owner",
          "type": "address"
        },
        {
          "indexed": true,
          "internalType": "address",
          "name": "operator",
          "type": "address"
        },
        {
          "indexed": false,
          "internalType": "bool",
          "name": "approved",
          "type": "bool"
        }
      ],
      "name": "ApprovalForAll",
      "type": "event"
    },
    {
      "anonymous": false,
      "inputs": [
        {
          "indexed": true,
          "internalType": "uint256",
          "name": "fromTokenId",
          "type": "uint256"
        },
        {
          "indexed": false,
          "internalType": "uint256",
          "name": "toTokenId",
          "type": "uint256"
        },
        {
          "indexed": true,
          "internalType": "address",
          "name": "from",
          "type": "address"
        },
        {
          "indexed": true,
          "internalType": "address",
          "name": "to",
          "type": "address"
        }
      ],
      "name": "ConsecutiveTransfer",
      "type": "event"
    },
    {
      "anonymous": false,
      "inputs": [
        {
          "indexed": true,
          "internalType": "address",
          "name": "previousOwner",
          "type": "address"
        },
        {
          "indexed": true,
          "internalType": "address",
          "name": "newOwner",
          "type": "address"
        }
      ],
      "name": "OwnershipTransferred",
      "type": "event"
    },
    {
      "anonymous": false,
      "inputs": [
        {
          "indexed": true,
          "internalType": "address",
          "name": "from",
          "type": "address"
        },
        {
          "indexed": true,
          "internalType": "address",
          "name": "to",
          "type": "address"
        },
        {
          "indexed": true,
          "internalType": "uint256",
          "name": "tokenId",
          "type": "uint256"
        }
      ],
      "name": "Transfer",
      "type": "event"
    },
    {
      "inputs": [
        {
          "internalType": "address",
          "name": "signer",
          "type": "address"
        }
      ],
      "name": "addSigner",
      "outputs": [],
      "stateMutability": "nonpayable",
      "type": "function"
    },
    {
      "inputs": [
        {
          "internalType": "address",
          "name": "to",
          "type": "address"
        },
        {
          "internalType": "uint256",
          "name": "tokenId",
          "type": "uint256"
        }
      ],
      "name": "approve",
      "outputs": [],
      "stateMutability": "payable",
      "type": "function"
    },
    {
      "inputs": [
        {
          "internalType": "address",
          "name": "owner",
          "type": "address"
        }
      ],
      "name": "balanceOf",
      "outputs": [
        {
          "internalType": "uint256",
          "name": "",
          "type": "uint256"
        }
      ],
      "stateMutability": "view",
      "type": "function"
    },
    {
      "inputs": [],
      "name": "currentBaseURI",
      "outputs": [
        {
          "internalType": "string",
          "name": "",
          "type": "string"
        }
      ],
      "stateMutability": "view",
      "type": "function"
    },
    {
      "inputs": [
        {
          "internalType": "uint256",
          "name": "tokenId",
          "type": "uint256"
        }
      ],
      "name": "getApproved",
      "outputs": [
        {
          "internalType": "address",
          "name": "",
          "type": "address"
        }
      ],
      "stateMutability": "view",
      "type": "function"
    },
    {
      "inputs": [
        {
          "internalType": "address",
          "name": "owner",
          "type": "address"
        },
        {
          "internalType": "address",
          "name": "operator",
          "type": "address"
        }
      ],
      "name": "isApprovedForAll",
      "outputs": [
        {
          "internalType": "bool",
          "name": "",
          "type": "bool"
        }
      ],
      "stateMutability": "view",
      "type": "function"
    },
    {
      "inputs": [
        {
          "internalType": "bytes",
          "name": "signature",
          "type": "bytes"
        },
        {
          "internalType": "string",
          "name": "sigId",
          "type": "string"
        }
      ],
      "name": "mint",
      "outputs": [],
      "stateMutability": "payable",
      "type": "function"
    },
    {
      "inputs": [],
      "name": "mintingActive",
      "outputs": [
        {
          "internalType": "bool",
          "name": "",
          "type": "bool"
        }
      ],
      "stateMutability": "view",
      "type": "function"
    },
    {
      "inputs": [],
      "name": "name",
      "outputs": [
        {
          "internalType": "string",
          "name": "",
          "type": "string"
        }
      ],
      "stateMutability": "view",
      "type": "function"
    },
    {
      "inputs": [],
      "name": "owner",
      "outputs": [
        {
          "internalType": "address",
          "name": "",
          "type": "address"
        }
      ],
      "stateMutability": "view",
      "type": "function"
    },
    {
      "inputs": [
        {
          "internalType": "uint256",
          "name": "tokenId",
          "type": "uint256"
        }
      ],
      "name": "ownerOf",
      "outputs": [
        {
          "internalType": "address",
          "name": "",
          "type": "address"
        }
      ],
      "stateMutability": "view",
      "type": "function"
    },
    {
      "inputs": [
        {
          "internalType": "address",
          "name": "signer",
          "type": "address"
        }
      ],
      "name": "removeSigner",
      "outputs": [],
      "stateMutability": "nonpayable",
      "type": "function"
    },
    {
      "inputs": [],
      "name": "renounceOwnership",
      "outputs": [],
      "stateMutability": "nonpayable",
      "type": "function"
    },
    {
      "inputs": [
        {
          "internalType": "address",
          "name": "from",
          "type": "address"
        },
        {
          "internalType": "address",
          "name": "to",
          "type": "address"
        },
        {
          "internalType": "uint256",
          "name": "tokenId",
          "type": "uint256"
        }
      ],
      "name": "safeTransferFrom",
      "outputs": [],
      "stateMutability": "payable",
      "type": "function"
    },
    {
      "inputs": [
        {
          "internalType": "address",
          "name": "from",
          "type": "address"
        },
        {
          "internalType": "address",
          "name": "to",
          "type": "address"
        },
        {
          "internalType": "uint256",
          "name": "tokenId",
          "type": "uint256"
        },
        {
          "internalType": "bytes",
          "name": "_data",
          "type": "bytes"
        }
      ],
      "name": "safeTransferFrom",
      "outputs": [],
      "stateMutability": "payable",
      "type": "function"
    },
    {
      "inputs": [
        {
          "internalType": "address",
          "name": "operator",
          "type": "address"
        },
        {
          "internalType": "bool",
          "name": "approved",
          "type": "bool"
        }
      ],
      "name": "setApprovalForAll",
      "outputs": [],
      "stateMutability": "nonpayable",
      "type": "function"
    },
    {
      "inputs": [
        {
          "internalType": "string",
          "name": "baseURI_",
          "type": "string"
        }
      ],
      "name": "setBaseURI",
      "outputs": [],
      "stateMutability": "nonpayable",
      "type": "function"
    },
    {
      "inputs": [
        {
          "internalType": "bytes4",
          "name": "interfaceId",
          "type": "bytes4"
        }
      ],
      "name": "supportsInterface",
      "outputs": [
        {
          "internalType": "bool",
          "name": "",
          "type": "bool"
        }
      ],
      "stateMutability": "view",
      "type": "function"
    },
    {
      "inputs": [],
      "name": "symbol",
      "outputs": [
        {
          "internalType": "string",
          "name": "",
          "type": "string"
        }
      ],
      "stateMutability": "view",
      "type": "function"
    },
    {
      "inputs": [],
      "name": "toggleMintingActive",
      "outputs": [],
      "stateMutability": "nonpayable",
      "type": "function"
    },
    {
      "inputs": [
        {
          "internalType": "uint256",
          "name": "tokenId",
          "type": "uint256"
        }
      ],
      "name": "tokenURI",
      "outputs": [
        {
          "internalType": "string",
          "name": "",
          "type": "string"
        }
      ],
      "stateMutability": "view",
      "type": "function"
    },
    {
      "inputs": [],
      "name": "totalSupply",
      "outputs": [
        {
          "internalType": "uint256",
          "name": "",
          "type": "uint256"
        }
      ],
      "stateMutability": "view",
      "type": "function"
    },
    {
      "inputs": [
        {
          "internalType": "address",
          "name": "from",
          "type": "address"
        },
        {
          "internalType": "address",
          "name": "to",
          "type": "address"
        },
        {
          "internalType": "uint256",
          "name": "tokenId",
          "type": "uint256"
        }
      ],
      "name": "transferFrom",
      "outputs": [],
      "stateMutability": "payable",
      "type": "function"
    },
    {
      "inputs": [
        {
          "internalType": "address",
          "name": "newOwner",
          "type": "address"
        }
      ],
      "name": "transferOwnership",
      "outputs": [],
      "stateMutability": "nonpayable",
      "type": "function"
    },
    {
      "inputs": [
        {
          "internalType": "bytes32",
          "name": "",
          "type": "bytes32"
        }
      ],
      "name": "usedMessages",
      "outputs": [
        {
          "internalType": "bool",
          "name": "",
          "type": "bool"
        }
      ],
      "stateMutability": "view",
      "type": "function"
    },
    {
      "inputs": [],
      "name": "withdrawEth",
      "outputs": [],
      "stateMutability": "nonpayable",
      "type": "function"
    }
  ],
  "transactionHash": "0x6e346d1841d90f33e2d224a6e42feac4d029156ce6b195927e43d841b8ac4602",
  "args": [],
  "numDeployments": 1,
  "solcInputHash": "c54349d83572d7027f1fb7922b69c704",
  "bytecode": "0x6080604052600c805460ff191690553480156200001b57600080fd5b5060405180604001604052806009815260200168436f6d6d756e69747960b81b81525060405180604001604052806002815260200161434f60f01b815250816002908051906020019062000071929190620000f6565b50805162000087906003906020840190620000f6565b505060008055506200009933620000a4565b6001600955620001d9565b600880546001600160a01b038381166001600160a01b0319831681179093556040519116919082907f8be0079c531659141344cd1fd0a4f28419497f9722a3daafe3b4186f6b6457e090600090a35050565b82805462000104906200019c565b90600052602060002090601f01602090048101928262000128576000855562000173565b82601f106200014357805160ff191683800117855562000173565b8280016001018555821562000173579182015b828111156200017357825182559160200191906001019062000156565b506200018192915062000185565b5090565b5b8082111562000181576000815560010162000186565b600181811c90821680620001b157607f821691505b60208210811415620001d357634e487b7160e01b600052602260045260246000fd5b50919050565b611e4080620001e96000396000f3fe6080604052600436106101815760003560e01c806370a08231116100d1578063a0ef91df1161008a578063c87b56dd11610064578063c87b56dd1461040a578063e985e9c51461042a578063eb12d61e1461044a578063f2fde38b1461046a57600080fd5b8063a0ef91df146103c2578063a22cb465146103d7578063b88d4fde146103f757600080fd5b806370a0823114610330578063715018a6146103505780638da5cb5b1461036557806393bd67c31461038357806395d89b411461039857806397d4ccd2146103ad57600080fd5b806323b872dd1161013e57806342842e0e1161011857806342842e0e146102ad57806355f804b3146102c05780635a028400146102e05780636352211e1461031057600080fd5b806323b872dd1461026d5780632b1ccc9a1461028057806331f9c9191461029357600080fd5b806301ffc9a71461018657806306fdde03146101bb578063081812fc146101dd578063095ea7b3146102155780630e316ab71461022a57806318160ddd1461024a575b600080fd5b34801561019257600080fd5b506101a66101a136600461189a565b61048a565b60405190151581526020015b60405180910390f35b3480156101c757600080fd5b506101d06104dc565b6040516101b2919061190f565b3480156101e957600080fd5b506101fd6101f8366004611922565b61056e565b6040516001600160a01b0390911681526020016101b2565b610228610223366004611957565b6105b2565b005b34801561023657600080fd5b50610228610245366004611981565b610652565b34801561025657600080fd5b50600154600054035b6040519081526020016101b2565b61022861027b36600461199c565b610669565b61022861028e366004611a84565b6107e9565b34801561029f57600080fd5b50600c546101a69060ff1681565b6102286102bb36600461199c565b6108b1565b3480156102cc57600080fd5b506102286102db366004611b18565b6108cc565b3480156102ec57600080fd5b506101a66102fb366004611922565b600e6020526000908152604090205460ff1681565b34801561031c57600080fd5b506101fd61032b366004611922565b6108e7565b34801561033c57600080fd5b5061025f61034b366004611981565b6108f2565b34801561035c57600080fd5b50610228610941565b34801561037157600080fd5b506008546001600160a01b03166101fd565b34801561038f57600080fd5b50610228610955565b3480156103a457600080fd5b506101d0610971565b3480156103b957600080fd5b506101d0610980565b3480156103ce57600080fd5b50610228610a0e565b3480156103e357600080fd5b506102286103f2366004611b4d565b610aa2565b610228610405366004611b89565b610b0e565b34801561041657600080fd5b506101d0610425366004611922565b610b58565b34801561043657600080fd5b506101a6610445366004611c05565b610bdd565b34801561045657600080fd5b50610228610465366004611981565b610c0b565b34801561047657600080fd5b50610228610485366004611981565b610c1e565b60006301ffc9a760e01b6001600160e01b0319831614806104bb57506380ac58cd60e01b6001600160e01b03198316145b806104d65750635b5e139f60e01b6001600160e01b03198316145b92915050565b6060600280546104eb90611c38565b80601f016020809104026020016040519081016040528092919081815260200182805461051790611c38565b80156105645780601f1061053957610100808354040283529160200191610564565b820191906000526020600020905b81548152906001019060200180831161054757829003601f168201915b5050505050905090565b600061057982610c97565b610596576040516333d1c03960e21b815260040160405180910390fd5b506000908152600660205260409020546001600160a01b031690565b60006105bd826108e7565b9050336001600160a01b038216146105f6576105d98133610bdd565b6105f6576040516367d9dca160e11b815260040160405180910390fd5b60008281526006602052604080822080546001600160a01b0319166001600160a01b0387811691821790925591518593918516917f8c5be1e5ebec7d5bd14f71427d1e84f3dd0314c0f7b2291e5b200ac8c7c3b92591a4505050565b61065a610cbe565b610665600a82610d18565b5050565b600061067482610d2d565b9050836001600160a01b0316816001600160a01b0316146106a75760405162a1148160e81b815260040160405180910390fd5b60008281526006602052604090208054338082146001600160a01b038816909114176106f4576106d78633610bdd565b6106f457604051632ce44b5f60e11b815260040160405180910390fd5b6001600160a01b03851661071b57604051633a954ecd60e21b815260040160405180910390fd5b801561072657600082555b6001600160a01b038681166000908152600560205260408082208054600019019055918716808252919020805460010190554260a01b17600160e11b17600085815260046020526040902055600160e11b83166107b157600184016000818152600460205260409020546107af5760005481146107af5760008181526004602052604090208490555b505b83856001600160a01b0316876001600160a01b0316600080516020611deb83398151915260405160405180910390a45b505050505050565b6107f1610d8e565b600c5460ff1661083d5760405162461bcd60e51b81526020600482015260126024820152714d696e74696e67206e6f742061637469766560701b60448201526064015b60405180910390fd5b600030338360405160200161085493929190611c73565b6040516020818303038152906040529050610874600a828686600e610de8565b600154600054036040513390600090600080516020611deb833981519152908290a46108a1336001610e89565b506108ac6001600955565b505050565b6108ac83838360405180602001604052806000815250610b0e565b6108d4610cbe565b805161066590600d9060208401906117eb565b60006104d682610d2d565b60006001600160a01b03821661091b576040516323d3ad8160e21b815260040160405180910390fd5b506001600160a01b031660009081526005602052604090205467ffffffffffffffff1690565b610949610cbe565b6109536000610ea3565b565b61095d610cbe565b600c805460ff19811660ff90911615179055565b6060600380546104eb90611c38565b600d805461098d90611c38565b80601f01602080910402602001604051908101604052809291908181526020018280546109b990611c38565b8015610a065780601f106109db57610100808354040283529160200191610a06565b820191906000526020600020905b8154815290600101906020018083116109e957829003601f168201915b505050505081565b610a16610cbe565b6040514790600090339083908381818185875af1925050503d8060008114610a5a576040519150601f19603f3d011682016040523d82523d6000602084013e610a5f565b606091505b50509050806106655760405162461bcd60e51b815260206004820152600f60248201526e15da5d1a191c985dc819985a5b1959608a1b6044820152606401610834565b3360008181526007602090815260408083206001600160a01b03871680855290835292819020805460ff191686151590811790915590519081529192917f17307eab39ab6107e8899845ad3d59bd9653f200f220920489ca2b5937696c31910160405180910390a35050565b610b19848484610669565b6001600160a01b0383163b15610b5257610b3584848484610ef5565b610b52576040516368d2bf6b60e11b815260040160405180910390fd5b50505050565b6060610b6382610c97565b610b8057604051630a14c4b560e41b815260040160405180910390fd5b6000610b8a610fed565b9050805160001415610bab5760405180602001604052806000815250610bd6565b80610bb584610ffc565b604051602001610bc6929190611c9f565b6040516020818303038152906040525b9392505050565b6001600160a01b03918216600090815260076020908152604080832093909416825291909152205460ff1690565b610c13610cbe565b610665600a8261104a565b610c26610cbe565b6001600160a01b038116610c8b5760405162461bcd60e51b815260206004820152602660248201527f4f776e61626c653a206e6577206f776e657220697320746865207a65726f206160448201526564647265737360d01b6064820152608401610834565b610c9481610ea3565b50565b60008054821080156104d6575050600090815260046020526040902054600160e01b161590565b6008546001600160a01b031633146109535760405162461bcd60e51b815260206004820181905260248201527f4f776e61626c653a2063616c6c6572206973206e6f7420746865206f776e65726044820152606401610834565b6000610bd6836001600160a01b03841661105f565b600081600054811015610d7557600081815260046020526040902054600160e01b8116610d73575b80610bd6575060001901600081815260046020526040902054610d55565b505b604051636f96cda160e11b815260040160405180910390fd5b60026009541415610de15760405162461bcd60e51b815260206004820152601f60248201527f5265656e7472616e637947756172643a207265656e7472616e742063616c6c006044820152606401610834565b6002600955565b6000610df385611152565b60008181526020849052604090205490915060ff1615610e645760405162461bcd60e51b815260206004820152602660248201527f5369676e6174757265436865636b65723a204d65737361676520616c726561646044820152651e481d5cd95960d21b6064820152608401610834565b6000818152602083905260409020805460ff191660011790556107e18682868661115d565b6106658282604051806020016040528060008152506111c1565b600880546001600160a01b038381166001600160a01b0319831681179093556040519116919082907f8be0079c531659141344cd1fd0a4f28419497f9722a3daafe3b4186f6b6457e090600090a35050565b604051630a85bd0160e11b81526000906001600160a01b0385169063150b7a0290610f2a903390899088908890600401611cce565b602060405180830381600087803b158015610f4457600080fd5b505af1925050508015610f74575060408051601f3d908101601f19168201909252610f7191810190611d0b565b60015b610fcf573d808015610fa2576040519150601f19603f3d011682016040523d82523d6000602084013e610fa7565b606091505b508051610fc7576040516368d2bf6b60e11b815260040160405180910390fd5b805181602001fd5b6001600160e01b031916630a85bd0160e11b1490505b949350505050565b6060600d80546104eb90611c38565b606060a06040510180604052602081039150506000815280825b600183039250600a81066030018353600a90048061103357611038565b611016565b50819003601f19909101908152919050565b6000610bd6836001600160a01b03841661122e565b60008181526001830160205260408120548015611148576000611083600183611d28565b855490915060009061109790600190611d28565b90508181146110fc5760008660000182815481106110b7576110b7611d4d565b90600052602060002001549050808760000184815481106110da576110da611d4d565b6000918252602080832090910192909255918252600188019052604090208390555b855486908061110d5761110d611d63565b6001900381819060005260206000200160009055905585600101600086815260200190815260200160002060009055600193505050506104d6565b60009150506104d6565b60006104d68261127d565b611169848484846112b8565b610b525760405162461bcd60e51b815260206004820152602360248201527f5369676e6174757265436865636b65723a20496e76616c6964207369676e617460448201526275726560e81b6064820152608401610834565b6111cb838361130d565b6001600160a01b0383163b156108ac576000548281035b6111f56000868380600101945086610ef5565b611212576040516368d2bf6b60e11b815260040160405180910390fd5b8181106111e257816000541461122757600080fd5b5050505050565b6000818152600183016020526040812054611275575081546001818101845560008481526020808220909301849055845484825282860190935260409020919091556104d6565b5060006104d6565b600061128982516113e0565b8260405160200161129b929190611d79565b604051602081830303815290604052805190602001209050919050565b60006113046112fd8585858080601f01602080910402602001604051908101604052809392919081815260200183838082843760009201919091525061147d92505050565b8690611499565b95945050505050565b6000548161132e5760405163b562e8dd60e01b815260040160405180910390fd5b6001600160a01b03831660008181526005602090815260408083208054680100000000000000018802019055848352600490915281206001851460e11b4260a01b17831790558284019083908390600080516020611deb8339815191528180a4600183015b8181146113b95780836000600080516020611deb833981519152600080a4600101611393565b50816113d757604051622e076360e81b815260040160405180910390fd5b60005550505050565b606060006113ed836114bb565b600101905060008167ffffffffffffffff81111561140d5761140d6119d8565b6040519080825280601f01601f191660200182016040528015611437576020820181803683370190505b5090508181016020015b600019016f181899199a1a9b1b9c1cb0b131b232b360811b600a86061a8153600a850494508461147057611475565b611441565b509392505050565b600080600061148c8585611593565b91509150611475816115d9565b6001600160a01b03811660009081526001830160205260408120541515610bd6565b60008072184f03e93ff9f4daa797ed6e38ed64bf6a1f0160401b83106114fa5772184f03e93ff9f4daa797ed6e38ed64bf6a1f0160401b830492506040015b6d04ee2d6d415b85acef81000000008310611526576d04ee2d6d415b85acef8100000000830492506020015b662386f26fc10000831061154457662386f26fc10000830492506010015b6305f5e100831061155c576305f5e100830492506008015b612710831061157057612710830492506004015b60648310611582576064830492506002015b600a83106104d65760010192915050565b6000808251604114156115ca5760208301516040840151606085015160001a6115be87828585611727565b945094505050506115d2565b506000905060025b9250929050565b60008160048111156115ed576115ed611dd4565b14156115f65750565b600181600481111561160a5761160a611dd4565b14156116585760405162461bcd60e51b815260206004820152601860248201527f45434453413a20696e76616c6964207369676e617475726500000000000000006044820152606401610834565b600281600481111561166c5761166c611dd4565b14156116ba5760405162461bcd60e51b815260206004820152601f60248201527f45434453413a20696e76616c6964207369676e6174757265206c656e677468006044820152606401610834565b60038160048111156116ce576116ce611dd4565b1415610c945760405162461bcd60e51b815260206004820152602260248201527f45434453413a20696e76616c6964207369676e6174757265202773272076616c604482015261756560f01b6064820152608401610834565b6000807f7fffffffffffffffffffffffffffffff5d576e7357a4501ddfe92f46681b20a083111561175e57506000905060036117e2565b6040805160008082526020820180845289905260ff881692820192909252606081018690526080810185905260019060a0016020604051602081039080840390855afa1580156117b2573d6000803e3d6000fd5b5050604051601f1901519150506001600160a01b0381166117db576000600192509250506117e2565b9150600090505b94509492505050565b8280546117f790611c38565b90600052602060002090601f016020900481019282611819576000855561185f565b82601f1061183257805160ff191683800117855561185f565b8280016001018555821561185f579182015b8281111561185f578251825591602001919060010190611844565b5061186b92915061186f565b5090565b5b8082111561186b5760008155600101611870565b6001600160e01b031981168114610c9457600080fd5b6000602082840312156118ac57600080fd5b8135610bd681611884565b60005b838110156118d25781810151838201526020016118ba565b83811115610b525750506000910152565b600081518084526118fb8160208601602086016118b7565b601f01601f19169290920160200192915050565b602081526000610bd660208301846118e3565b60006020828403121561193457600080fd5b5035919050565b80356001600160a01b038116811461195257600080fd5b919050565b6000806040838503121561196a57600080fd5b6119738361193b565b946020939093013593505050565b60006020828403121561199357600080fd5b610bd68261193b565b6000806000606084860312156119b157600080fd5b6119ba8461193b565b92506119c86020850161193b565b9150604084013590509250925092565b634e487b7160e01b600052604160045260246000fd5b600067ffffffffffffffff80841115611a0957611a096119d8565b604051601f8501601f19908116603f01168101908282118183101715611a3157611a316119d8565b81604052809350858152868686011115611a4a57600080fd5b858560208301376000602087830101525050509392505050565b600082601f830112611a7557600080fd5b610bd6838335602085016119ee565b600080600060408486031215611a9957600080fd5b833567ffffffffffffffff80821115611ab157600080fd5b818601915086601f830112611ac557600080fd5b813581811115611ad457600080fd5b876020828501011115611ae657600080fd5b602092830195509350908501359080821115611b0157600080fd5b50611b0e86828701611a64565b9150509250925092565b600060208284031215611b2a57600080fd5b813567ffffffffffffffff811115611b4157600080fd5b610fe584828501611a64565b60008060408385031215611b6057600080fd5b611b698361193b565b915060208301358015158114611b7e57600080fd5b809150509250929050565b60008060008060808587031215611b9f57600080fd5b611ba88561193b565b9350611bb66020860161193b565b925060408501359150606085013567ffffffffffffffff811115611bd957600080fd5b8501601f81018713611bea57600080fd5b611bf9878235602084016119ee565b91505092959194509250565b60008060408385031215611c1857600080fd5b611c218361193b565b9150611c2f6020840161193b565b90509250929050565b600181811c90821680611c4c57607f821691505b60208210811415611c6d57634e487b7160e01b600052602260045260246000fd5b50919050565b6001600160a01b03848116825283166020820152606060408201819052600090611304908301846118e3565b60008351611cb18184602088016118b7565b835190830190611cc58183602088016118b7565b01949350505050565b6001600160a01b0385811682528416602082015260408101839052608060608201819052600090611d01908301846118e3565b9695505050505050565b600060208284031215611d1d57600080fd5b8151610bd681611884565b600082821015611d4857634e487b7160e01b600052601160045260246000fd5b500390565b634e487b7160e01b600052603260045260246000fd5b634e487b7160e01b600052603160045260246000fd5b7f19457468657265756d205369676e6564204d6573736167653a0a000000000000815260008351611db181601a8501602088016118b7565b835190830190611dc881601a8401602088016118b7565b01601a01949350505050565b634e487b7160e01b600052602160045260246000fdfeddf252ad1be2c89b69c2b068fc378daa952ba7f163c4a11628f55a4df523b3efa2646970667358221220b0aba884c1532157a247865562c52454df7f2b7c467f6b7d1ea9533d2513ffef64736f6c63430008090033",
  "libraries": {},
  "devdoc": {
    "kind": "dev",
    "methods": {
      "approve(address,uint256)": {
        "details": "Gives permission to `to` to transfer `tokenId` token to another account. The approval is cleared when the token is transferred. Only a single account can be approved at a time, so approving the zero address clears previous approvals. Requirements: - The caller must own the token or be an approved operator. - `tokenId` must exist. Emits an {Approval} event."
      },
      "balanceOf(address)": {
        "details": "Returns the number of tokens in `owner`'s account."
      },
      "getApproved(uint256)": {
        "details": "Returns the account approved for `tokenId` token. Requirements: - `tokenId` must exist."
      },
      "isApprovedForAll(address,address)": {
        "details": "Returns if the `operator` is allowed to manage all of the assets of `owner`. See {setApprovalForAll}."
      },
      "mint(bytes,string)": {
        "details": "Mint a token",
        "params": {
          "sigId": "A unique identifier for the signature, so that the sender can mint again",
          "signature": "The signature of the message"
        }
      },
      "name()": {
        "details": "Returns the token collection name."
      },
      "owner()": {
        "details": "Returns the address of the current owner."
      },
      "ownerOf(uint256)": {
        "details": "Returns the owner of the `tokenId` token. Requirements: - `tokenId` must exist."
      },
      "renounceOwnership()": {
        "details": "Leaves the contract without owner. It will not be possible to call `onlyOwner` functions anymore. Can only be called by the current owner. NOTE: Renouncing ownership will leave the contract without an owner, thereby removing any functionality that is only available to the owner."
      },
      "safeTransferFrom(address,address,uint256)": {
        "details": "Equivalent to `safeTransferFrom(from, to, tokenId, '')`."
      },
      "safeTransferFrom(address,address,uint256,bytes)": {
        "details": "Safely transfers `tokenId` token from `from` to `to`. Requirements: - `from` cannot be the zero address. - `to` cannot be the zero address. - `tokenId` token must exist and be owned by `from`. - If the caller is not `from`, it must be approved to move this token by either {approve} or {setApprovalForAll}. - If `to` refers to a smart contract, it must implement {IERC721Receiver-onERC721Received}, which is called upon a safe transfer. Emits a {Transfer} event."
      },
      "setApprovalForAll(address,bool)": {
        "details": "Approve or remove `operator` as an operator for the caller. Operators can call {transferFrom} or {safeTransferFrom} for any token owned by the caller. Requirements: - The `operator` cannot be the caller. Emits an {ApprovalForAll} event."
      },
      "setBaseURI(string)": {
        "details": "Set the base URI"
      },
      "supportsInterface(bytes4)": {
        "details": "Returns true if this contract implements the interface defined by `interfaceId`. See the corresponding [EIP section](https://eips.ethereum.org/EIPS/eip-165#how-interfaces-are-identified) to learn more about how these ids are created. This function call must use less than 30000 gas."
      },
      "symbol()": {
        "details": "Returns the token collection symbol."
      },
      "toggleMintingActive()": {
        "details": "Enable or disable minting"
      },
      "tokenURI(uint256)": {
        "details": "Returns the Uniform Resource Identifier (URI) for `tokenId` token."
      },
      "totalSupply()": {
        "details": "Returns the total number of tokens in existence. Burned tokens will reduce the count. To get the total number of tokens minted, please see {_totalMinted}."
      },
      "transferFrom(address,address,uint256)": {
        "details": "Transfers `tokenId` from `from` to `to`. Requirements: - `from` cannot be the zero address. - `to` cannot be the zero address. - `tokenId` token must be owned by `from`. - If the caller is not `from`, it must be approved to move this token by either {approve} or {setApprovalForAll}. Emits a {Transfer} event."
      },
      "transferOwnership(address)": {
        "details": "Transfers ownership of the contract to a new account (`newOwner`). Can only be called by the current owner."
      },
      "withdrawEth()": {
        "details": "Withdraw ether to owner's wallet"
      }
    },
    "version": 1
  },
  "userdoc": {
    "errors": {
      "ApprovalCallerNotOwnerNorApproved()": [
        {
          "notice": "The caller must own the token or be an approved operator."
        }
      ],
      "ApprovalQueryForNonexistentToken()": [
        {
          "notice": "The token does not exist."
        }
      ],
      "BalanceQueryForZeroAddress()": [
        {
          "notice": "Cannot query the balance for the zero address."
        }
      ],
      "MintERC2309QuantityExceedsLimit()": [
        {
          "notice": "The `quantity` minted with ERC2309 exceeds the safety limit."
        }
      ],
      "MintToZeroAddress()": [
        {
          "notice": "Cannot mint to the zero address."
        }
      ],
      "MintZeroQuantity()": [
        {
          "notice": "The quantity of tokens minted must be more than zero."
        }
      ],
      "OwnerQueryForNonexistentToken()": [
        {
          "notice": "The token does not exist."
        }
      ],
      "OwnershipNotInitializedForExtraData()": [
        {
          "notice": "The `extraData` cannot be set on an unintialized ownership slot."
        }
      ],
      "TransferCallerNotOwnerNorApproved()": [
        {
          "notice": "The caller must own the token or be an approved operator."
        }
      ],
      "TransferFromIncorrectOwner()": [
        {
          "notice": "The token must be owned by `from`."
        }
      ],
      "TransferToNonERC721ReceiverImplementer()": [
        {
          "notice": "Cannot safely transfer to a contract that does not implement the ERC721Receiver interface."
        }
      ],
      "TransferToZeroAddress()": [
        {
          "notice": "Cannot transfer to the zero address."
        }
      ],
      "URIQueryForNonexistentToken()": [
        {
          "notice": "The token does not exist."
        }
      ]
    },
    "kind": "user",
    "methods": {
      "addSigner(address)": {
        "notice": "Add an address to the set of accepted signers."
      },
      "removeSigner(address)": {
        "notice": "Remove an address previously added with addSigner()."
      }
    },
    "version": 1
  },
  "storageLayout": {
    "storage": [
      {
        "astId": 2655,
        "contract": "contracts/Community.sol:Community",
        "label": "_currentIndex",
        "offset": 0,
        "slot": "0",
        "type": "t_uint256"
      },
      {
        "astId": 2657,
        "contract": "contracts/Community.sol:Community",
        "label": "_burnCounter",
        "offset": 0,
        "slot": "1",
        "type": "t_uint256"
      },
      {
        "astId": 2659,
        "contract": "contracts/Community.sol:Community",
        "label": "_name",
        "offset": 0,
        "slot": "2",
        "type": "t_string_storage"
      },
      {
        "astId": 2661,
        "contract": "contracts/Community.sol:Community",
        "label": "_symbol",
        "offset": 0,
        "slot": "3",
        "type": "t_string_storage"
      },
      {
        "astId": 2665,
        "contract": "contracts/Community.sol:Community",
        "label": "_packedOwnerships",
        "offset": 0,
        "slot": "4",
        "type": "t_mapping(t_uint256,t_uint256)"
      },
      {
        "astId": 2669,
        "contract": "contracts/Community.sol:Community",
        "label": "_packedAddressData",
        "offset": 0,
        "slot": "5",
        "type": "t_mapping(t_address,t_uint256)"
      },
      {
        "astId": 2674,
        "contract": "contracts/Community.sol:Community",
        "label": "_tokenApprovals",
        "offset": 0,
        "slot": "6",
        "type": "t_mapping(t_uint256,t_struct(TokenApprovalRef)2587_storage)"
      },
      {
        "astId": 2680,
        "contract": "contracts/Community.sol:Community",
        "label": "_operatorApprovals",
        "offset": 0,
        "slot": "7",
        "type": "t_mapping(t_address,t_mapping(t_address,t_bool))"
      },
      {
        "astId": 7,
        "contract": "contracts/Community.sol:Community",
        "label": "_owner",
        "offset": 0,
        "slot": "8",
        "type": "t_address"
      },
      {
        "astId": 123,
        "contract": "contracts/Community.sol:Community",
        "label": "_status",
        "offset": 0,
        "slot": "9",
        "type": "t_uint256"
      },
      {
        "astId": 2532,
        "contract": "contracts/Community.sol:Community",
        "label": "signers",
        "offset": 0,
        "slot": "10",
        "type": "t_struct(AddressSet)1915_storage"
      },
      {
        "astId": 2221,
        "contract": "contracts/Community.sol:Community",
        "label": "mintingActive",
        "offset": 0,
        "slot": "12",
        "type": "t_bool"
      },
      {
        "astId": 2223,
        "contract": "contracts/Community.sol:Community",
        "label": "currentBaseURI",
        "offset": 0,
        "slot": "13",
        "type": "t_string_storage"
      },
      {
        "astId": 2227,
        "contract": "contracts/Community.sol:Community",
        "label": "usedMessages",
        "offset": 0,
        "slot": "14",
        "type": "t_mapping(t_bytes32,t_bool)"
      }
    ],
    "types": {
      "t_address": {
        "encoding": "inplace",
        "label": "address",
        "numberOfBytes": "20"
      },
      "t_array(t_bytes32)dyn_storage": {
        "base": "t_bytes32",
        "encoding": "dynamic_array",
        "label": "bytes32[]",
        "numberOfBytes": "32"
      },
      "t_bool": {
        "encoding": "inplace",
        "label": "bool",
        "numberOfBytes": "1"
      },
      "t_bytes32": {
        "encoding": "inplace",
        "label": "bytes32",
        "numberOfBytes": "32"
      },
      "t_mapping(t_address,t_bool)": {
        "encoding": "mapping",
        "key": "t_address",
        "label": "mapping(address => bool)",
        "numberOfBytes": "32",
        "value": "t_bool"
      },
      "t_mapping(t_address,t_mapping(t_address,t_bool))": {
        "encoding": "mapping",
        "key": "t_address",
        "label": "mapping(address => mapping(address => bool))",
        "numberOfBytes": "32",
        "value": "t_mapping(t_address,t_bool)"
      },
      "t_mapping(t_address,t_uint256)": {
        "encoding": "mapping",
        "key": "t_address",
        "label": "mapping(address => uint256)",
        "numberOfBytes": "32",
        "value": "t_uint256"
      },
      "t_mapping(t_bytes32,t_bool)": {
        "encoding": "mapping",
        "key": "t_bytes32",
        "label": "mapping(bytes32 => bool)",
        "numberOfBytes": "32",
        "value": "t_bool"
      },
      "t_mapping(t_bytes32,t_uint256)": {
        "encoding": "mapping",
        "key": "t_bytes32",
        "label": "mapping(bytes32 => uint256)",
        "numberOfBytes": "32",
        "value": "t_uint256"
      },
      "t_mapping(t_uint256,t_struct(TokenApprovalRef)2587_storage)": {
        "encoding": "mapping",
        "key": "t_uint256",
        "label": "mapping(uint256 => struct ERC721A.TokenApprovalRef)",
        "numberOfBytes": "32",
        "value": "t_struct(TokenApprovalRef)2587_storage"
      },
      "t_mapping(t_uint256,t_uint256)": {
        "encoding": "mapping",
        "key": "t_uint256",
        "label": "mapping(uint256 => uint256)",
        "numberOfBytes": "32",
        "value": "t_uint256"
      },
      "t_string_storage": {
        "encoding": "bytes",
        "label": "string",
        "numberOfBytes": "32"
      },
      "t_struct(AddressSet)1915_storage": {
        "encoding": "inplace",
        "label": "struct EnumerableSet.AddressSet",
        "members": [
          {
            "astId": 1914,
            "contract": "contracts/Community.sol:Community",
            "label": "_inner",
            "offset": 0,
            "slot": "0",
            "type": "t_struct(Set)1600_storage"
          }
        ],
        "numberOfBytes": "64"
      },
      "t_struct(Set)1600_storage": {
        "encoding": "inplace",
        "label": "struct EnumerableSet.Set",
        "members": [
          {
            "astId": 1595,
            "contract": "contracts/Community.sol:Community",
            "label": "_values",
            "offset": 0,
            "slot": "0",
            "type": "t_array(t_bytes32)dyn_storage"
          },
          {
            "astId": 1599,
            "contract": "contracts/Community.sol:Community",
            "label": "_indexes",
            "offset": 0,
            "slot": "1",
            "type": "t_mapping(t_bytes32,t_uint256)"
          }
        ],
        "numberOfBytes": "64"
      },
      "t_struct(TokenApprovalRef)2587_storage": {
        "encoding": "inplace",
        "label": "struct ERC721A.TokenApprovalRef",
        "members": [
          {
            "astId": 2586,
            "contract": "contracts/Community.sol:Community",
            "label": "value",
            "offset": 0,
            "slot": "0",
            "type": "t_address"
          }
        ],
        "numberOfBytes": "32"
      },
      "t_uint256": {
        "encoding": "inplace",
        "label": "uint256",
        "numberOfBytes": "32"
      }
    }
  }
}