{
  "address": "0x00bb83c24d7ac41e9d58fb5f48ef47d7ce47461d",
  "abi": [
    {
      "inputs": [
        {
          "internalType": "string",
          "name": "_name",
          "type": "string"
        },
        {
          "internalType": "string",
          "name": "_symbol",
          "type": "string"
        }
      ],
      "stateMutability": "nonpayable",
      "type": "constructor"
    },
    {
      "anonymous": false,
      "inputs": [
        {
          "indexed": true,
          "internalType": "address",
          "name": "account",
          "type": "address"
        },
        {
          "indexed": true,
          "internalType": "address",
          "name": "operator",
          "type": "address"
        },
        {
          "indexed": false,
          "internalType": "bool",
          "name": "approved",
          "type": "bool"
        }
      ],
      "name": "ApprovalForAll",
      "type": "event"
    },
    {
      "anonymous": false,
      "inputs": [
        {
          "indexed": true,
          "internalType": "address",
          "name": "previousOwner",
          "type": "address"
        },
        {
          "indexed": true,
          "internalType": "address",
          "name": "newOwner",
          "type": "address"
        }
      ],
      "name": "OwnershipTransferred",
      "type": "event"
    },
    {
      "anonymous": false,
      "inputs": [
        {
          "indexed": true,
          "internalType": "address",
          "name": "operator",
          "type": "address"
        },
        {
          "indexed": true,
          "internalType": "address",
          "name": "from",
          "type": "address"
        },
        {
          "indexed": true,
          "internalType": "address",
          "name": "to",
          "type": "address"
        },
        {
          "indexed": false,
          "internalType": "uint256[]",
          "name": "ids",
          "type": "uint256[]"
        },
        {
          "indexed": false,
          "internalType": "uint256[]",
          "name": "values",
          "type": "uint256[]"
        }
      ],
      "name": "TransferBatch",
      "type": "event"
    },
    {
      "anonymous": false,
      "inputs": [
        {
          "indexed": true,
          "internalType": "address",
          "name": "operator",
          "type": "address"
        },
        {
          "indexed": true,
          "internalType": "address",
          "name": "from",
          "type": "address"
        },
        {
          "indexed": true,
          "internalType": "address",
          "name": "to",
          "type": "address"
        },
        {
          "indexed": false,
          "internalType": "uint256",
          "name": "id",
          "type": "uint256"
        },
        {
          "indexed": false,
          "internalType": "uint256",
          "name": "value",
          "type": "uint256"
        }
      ],
      "name": "TransferSingle",
      "type": "event"
    },
    {
      "anonymous": false,
      "inputs": [
        {
          "indexed": false,
          "internalType": "string",
          "name": "value",
          "type": "string"
        },
        {
          "indexed": true,
          "internalType": "uint256",
          "name": "id",
          "type": "uint256"
        }
      ],
      "name": "URI",
      "type": "event"
    },
    {
      "inputs": [
        {
          "internalType": "address",
          "name": "signer",
          "type": "address"
        }
      ],
      "name": "addSigner",
      "outputs": [],
      "stateMutability": "nonpayable",
      "type": "function"
    },
    {
      "inputs": [
        {
          "internalType": "address",
          "name": "account",
          "type": "address"
        },
        {
          "internalType": "uint256",
          "name": "id",
          "type": "uint256"
        }
      ],
      "name": "balanceOf",
      "outputs": [
        {
          "internalType": "uint256",
          "name": "",
          "type": "uint256"
        }
      ],
      "stateMutability": "view",
      "type": "function"
    },
    {
      "inputs": [
        {
          "internalType": "address[]",
          "name": "accounts",
          "type": "address[]"
        },
        {
          "internalType": "uint256[]",
          "name": "ids",
          "type": "uint256[]"
        }
      ],
      "name": "balanceOfBatch",
      "outputs": [
        {
          "internalType": "uint256[]",
          "name": "",
          "type": "uint256[]"
        }
      ],
      "stateMutability": "view",
      "type": "function"
    },
    {
      "inputs": [
        {
          "internalType": "address",
          "name": "account",
          "type": "address"
        },
        {
          "internalType": "address",
          "name": "operator",
          "type": "address"
        }
      ],
      "name": "isApprovedForAll",
      "outputs": [
        {
          "internalType": "bool",
          "name": "",
          "type": "bool"
        }
      ],
      "stateMutability": "view",
      "type": "function"
    },
    {
      "inputs": [
        {
          "internalType": "uint256",
          "name": "tokenId",
          "type": "uint256"
        },
        {
          "internalType": "bytes",
          "name": "signature",
          "type": "bytes"
        }
      ],
      "name": "mint",
      "outputs": [],
      "stateMutability": "payable",
      "type": "function"
    },
    {
      "inputs": [
        {
          "internalType": "uint256",
          "name": "",
          "type": "uint256"
        }
      ],
      "name": "mintingActive",
      "outputs": [
        {
          "internalType": "bool",
          "name": "",
          "type": "bool"
        }
      ],
      "stateMutability": "view",
      "type": "function"
    },
    {
      "inputs": [],
      "name": "name",
      "outputs": [
        {
          "internalType": "string",
          "name": "",
          "type": "string"
        }
      ],
      "stateMutability": "view",
      "type": "function"
    },
    {
      "inputs": [],
      "name": "owner",
      "outputs": [
        {
          "internalType": "address",
          "name": "",
          "type": "address"
        }
      ],
      "stateMutability": "view",
      "type": "function"
    },
    {
      "inputs": [
        {
          "internalType": "address",
          "name": "signer",
          "type": "address"
        }
      ],
      "name": "removeSigner",
      "outputs": [],
      "stateMutability": "nonpayable",
      "type": "function"
    },
    {
      "inputs": [],
      "name": "renounceOwnership",
      "outputs": [],
      "stateMutability": "nonpayable",
      "type": "function"
    },
    {
      "inputs": [
        {
          "internalType": "address",
          "name": "from",
          "type": "address"
        },
        {
          "internalType": "address",
          "name": "to",
          "type": "address"
        },
        {
          "internalType": "uint256[]",
          "name": "ids",
          "type": "uint256[]"
        },
        {
          "internalType": "uint256[]",
          "name": "amounts",
          "type": "uint256[]"
        },
        {
          "internalType": "bytes",
          "name": "data",
          "type": "bytes"
        }
      ],
      "name": "safeBatchTransferFrom",
      "outputs": [],
      "stateMutability": "nonpayable",
      "type": "function"
    },
    {
      "inputs": [
        {
          "internalType": "address",
          "name": "from",
          "type": "address"
        },
        {
          "internalType": "address",
          "name": "to",
          "type": "address"
        },
        {
          "internalType": "uint256",
          "name": "id",
          "type": "uint256"
        },
        {
          "internalType": "uint256",
          "name": "amount",
          "type": "uint256"
        },
        {
          "internalType": "bytes",
          "name": "data",
          "type": "bytes"
        }
      ],
      "name": "safeTransferFrom",
      "outputs": [],
      "stateMutability": "nonpayable",
      "type": "function"
    },
    {
      "inputs": [
        {
          "internalType": "address",
          "name": "operator",
          "type": "address"
        },
        {
          "internalType": "bool",
          "name": "approved",
          "type": "bool"
        }
      ],
      "name": "setApprovalForAll",
      "outputs": [],
      "stateMutability": "nonpayable",
      "type": "function"
    },
    {
      "inputs": [
        {
          "internalType": "uint256",
          "name": "tokenId",
          "type": "uint256"
        },
        {
          "internalType": "bool",
          "name": "active",
          "type": "bool"
        }
      ],
      "name": "setMintingActive",
      "outputs": [],
      "stateMutability": "nonpayable",
      "type": "function"
    },
    {
      "inputs": [
        {
          "internalType": "uint256",
          "name": "tokenId",
          "type": "uint256"
        },
        {
          "internalType": "uint256",
          "name": "price",
          "type": "uint256"
        }
      ],
      "name": "setTokenPrice",
      "outputs": [],
      "stateMutability": "nonpayable",
      "type": "function"
    },
    {
      "inputs": [
        {
          "internalType": "uint256",
          "name": "tokenId",
          "type": "uint256"
        },
        {
          "internalType": "string",
          "name": "_uri",
          "type": "string"
        }
      ],
      "name": "setTokenURI",
      "outputs": [],
      "stateMutability": "nonpayable",
      "type": "function"
    },
    {
      "inputs": [
        {
          "internalType": "address",
          "name": "to",
          "type": "address"
        },
        {
          "internalType": "uint256",
          "name": "tokenId",
          "type": "uint256"
        }
      ],
      "name": "sigUsed",
      "outputs": [
        {
          "internalType": "bool",
          "name": "",
          "type": "bool"
        }
      ],
      "stateMutability": "view",
      "type": "function"
    },
    {
      "inputs": [
        {
          "internalType": "bytes4",
          "name": "interfaceId",
          "type": "bytes4"
        }
      ],
      "name": "supportsInterface",
      "outputs": [
        {
          "internalType": "bool",
          "name": "",
          "type": "bool"
        }
      ],
      "stateMutability": "view",
      "type": "function"
    },
    {
      "inputs": [],
      "name": "symbol",
      "outputs": [
        {
          "internalType": "string",
          "name": "",
          "type": "string"
        }
      ],
      "stateMutability": "view",
      "type": "function"
    },
    {
      "inputs": [
        {
          "internalType": "uint256",
          "name": "",
          "type": "uint256"
        }
      ],
      "name": "tokenPrices",
      "outputs": [
        {
          "internalType": "uint256",
          "name": "",
          "type": "uint256"
        }
      ],
      "stateMutability": "view",
      "type": "function"
    },
    {
      "inputs": [
        {
          "internalType": "uint256",
          "name": "",
          "type": "uint256"
        }
      ],
      "name": "tokenURIs",
      "outputs": [
        {
          "internalType": "string",
          "name": "",
          "type": "string"
        }
      ],
      "stateMutability": "view",
      "type": "function"
    },
    {
      "inputs": [
        {
          "internalType": "address",
          "name": "newOwner",
          "type": "address"
        }
      ],
      "name": "transferOwnership",
      "outputs": [],
      "stateMutability": "nonpayable",
      "type": "function"
    },
    {
      "inputs": [
        {
          "internalType": "uint256",
          "name": "tokenId",
          "type": "uint256"
        }
      ],
      "name": "uri",
      "outputs": [
        {
          "internalType": "string",
          "name": "",
          "type": "string"
        }
      ],
      "stateMutability": "view",
      "type": "function"
    },
    {
      "inputs": [
        {
          "internalType": "bytes32",
          "name": "",
          "type": "bytes32"
        }
      ],
      "name": "usedMessages",
      "outputs": [
        {
          "internalType": "bool",
          "name": "",
          "type": "bool"
        }
      ],
      "stateMutability": "view",
      "type": "function"
    },
    {
      "inputs": [],
      "name": "withdrawEth",
      "outputs": [],
      "stateMutability": "nonpayable",
      "type": "function"
    }
  ],
  "transactionHash": "0x6f6fe6b0a7e5a20fb0d729269b5bcbd2bad517e9ce761c86dc0920cd7e74a091",
  "args": [
    "Creator",
    "CREATOR"
  ],
  "numDeployments": 1,
  "solcInputHash": "0cf955fb9f75e516460713952768abdf",
  "bytecode": "0x60806040523480156200001157600080fd5b506040516200250f3803806200250f833981016040819052620000349162000271565b6040805160208101909152600081526200004e8162000093565b506200005a33620000ac565b600160045581516200007490600b906020850190620000fe565b5080516200008a90600c906020840190620000fe565b50505062000318565b8051620000a8906002906020840190620000fe565b5050565b600380546001600160a01b038381166001600160a01b0319831681179093556040519116919082907f8be0079c531659141344cd1fd0a4f28419497f9722a3daafe3b4186f6b6457e090600090a35050565b8280546200010c90620002db565b90600052602060002090601f0160209004810192826200013057600085556200017b565b82601f106200014b57805160ff19168380011785556200017b565b828001600101855582156200017b579182015b828111156200017b5782518255916020019190600101906200015e565b50620001899291506200018d565b5090565b5b808211156200018957600081556001016200018e565b634e487b7160e01b600052604160045260246000fd5b600082601f830112620001cc57600080fd5b81516001600160401b0380821115620001e957620001e9620001a4565b604051601f8301601f19908116603f01168101908282118183101715620002145762000214620001a4565b816040528381526020925086838588010111156200023157600080fd5b600091505b8382101562000255578582018301518183018401529082019062000236565b83821115620002675760008385830101525b9695505050505050565b600080604083850312156200028557600080fd5b82516001600160401b03808211156200029d57600080fd5b620002ab86838701620001ba565b93506020850151915080821115620002c257600080fd5b50620002d185828601620001ba565b9150509250929050565b600181811c90821680620002f057607f821691505b602082108114156200031257634e487b7160e01b600052602260045260246000fd5b50919050565b6121e780620003286000396000f3fe6080604052600436106101655760003560e01c80638667adfb116100d1578063db7fd4081161008a578063eb12d61e11610064578063eb12d61e1461046e578063eb685c471461048e578063f242432a146104ae578063f2fde38b146104c957600080fd5b8063db7fd408146103e5578063e5afe3e6146103f8578063e985e9c51461042557600080fd5b80638667adfb146103235780638b606335146103435780638da5cb5b1461037357806395d89b411461039b578063a0ef91df146103b0578063a22cb465146103c557600080fd5b80632eb2c2d6116101235780632eb2c2d6146102515780632f050692146102715780634e1273f4146102915780635a028400146102be5780636c8b703f146102ee578063715018a61461030e57600080fd5b8062fdd58e1461016a57806301ffc9a71461019d57806306fdde03146101cd5780630e316ab7146101ef5780630e89341c14610211578063162094c414610231575b600080fd5b34801561017657600080fd5b5061018a610185366004611982565b6104e9565b6040519081526020015b60405180910390f35b3480156101a957600080fd5b506101bd6101b83660046119c2565b610582565b6040519015158152602001610194565b3480156101d957600080fd5b506101e26105d2565b6040516101949190611a37565b3480156101fb57600080fd5b5061020f61020a366004611a4a565b610660565b005b34801561021d57600080fd5b506101e261022c366004611a65565b610677565b34801561023d57600080fd5b5061020f61024c366004611b1f565b610719565b34801561025d57600080fd5b5061020f61026c366004611c2f565b610745565b34801561027d57600080fd5b5061020f61028c366004611ce9565b610782565b34801561029d57600080fd5b506102b16102ac366004611d15565b6107aa565b6040516101949190611dd6565b3480156102ca57600080fd5b506101bd6102d9366004611a65565b600a6020526000908152604090205460ff1681565b3480156102fa57600080fd5b506101e2610309366004611a65565b6108d4565b34801561031a57600080fd5b5061020f6108ed565b34801561032f57600080fd5b506101bd61033e366004611982565b610901565b34801561034f57600080fd5b506101bd61035e366004611a65565b60096020526000908152604090205460ff1681565b34801561037f57600080fd5b506003546040516001600160a01b039091168152602001610194565b3480156103a757600080fd5b506101e261095b565b3480156103bc57600080fd5b5061020f610968565b3480156103d157600080fd5b5061020f6103e0366004611e1a565b6109fc565b61020f6103f3366004611e44565b610a07565b34801561040457600080fd5b5061018a610413366004611a65565b60086020526000908152604090205481565b34801561043157600080fd5b506101bd610440366004611ec0565b6001600160a01b03918216600090815260016020908152604080832093909416825291909152205460ff1690565b34801561047a57600080fd5b5061020f610489366004611a4a565b610c11565b34801561049a57600080fd5b5061020f6104a9366004611eea565b610c24565b3480156104ba57600080fd5b5061020f61026c366004611f0c565b3480156104d557600080fd5b5061020f6104e4366004611a4a565b610c3e565b60006001600160a01b0383166105595760405162461bcd60e51b815260206004820152602a60248201527f455243313135353a2061646472657373207a65726f206973206e6f742061207660448201526930b634b21037bbb732b960b11b60648201526084015b60405180910390fd5b506000818152602081815260408083206001600160a01b03861684529091529020545b92915050565b60006001600160e01b03198216636cdb3d1360e11b14806105b357506001600160e01b031982166303a24d0760e21b145b8061057c57506301ffc9a760e01b6001600160e01b031983161461057c565b600b80546105df90611f71565b80601f016020809104026020016040519081016040528092919081815260200182805461060b90611f71565b80156106585780601f1061062d57610100808354040283529160200191610658565b820191906000526020600020905b81548152906001019060200180831161063b57829003601f168201915b505050505081565b610668610cb7565b610673600582610d11565b5050565b600081815260076020526040902080546060919061069490611f71565b80601f01602080910402602001604051908101604052809291908181526020018280546106c090611f71565b801561070d5780601f106106e25761010080835404028352916020019161070d565b820191906000526020600020905b8154815290600101906020018083116106f057829003601f168201915b50505050509050919050565b610721610cb7565b60008281526007602090815260409091208251610740928401906118cd565b505050565b60405162461bcd60e51b8152602060048201526012602482015271151c985b9cd9995c9cc8191a5cd8589b195960721b6044820152606401610550565b61078a610cb7565b600091825260096020526040909120805460ff1916911515919091179055565b6060815183511461080f5760405162461bcd60e51b815260206004820152602960248201527f455243313135353a206163636f756e747320616e6420696473206c656e677468604482015268040dad2e6dac2e8c6d60bb1b6064820152608401610550565b6000835167ffffffffffffffff81111561082b5761082b611a7e565b604051908082528060200260200182016040528015610854578160200160208202803683370190505b50905060005b84518110156108cc5761089f85828151811061087857610878611fac565b602002602001015185838151811061089257610892611fac565b60200260200101516104e9565b8282815181106108b1576108b1611fac565b60209081029190910101526108c581611fd8565b905061085a565b509392505050565b600760205260009081526040902080546105df90611f71565b6108f5610cb7565b6108ff6000610d2d565b565b604080513060208201526001600160a01b0384168183015260608082018490528251808303909101815260809091019091526000908161094082610d7f565b6000908152600a602052604090205460ff1695945050505050565b600c80546105df90611f71565b610970610cb7565b6040514790600090339083908381818185875af1925050503d80600081146109b4576040519150601f19603f3d011682016040523d82523d6000602084013e6109b9565b606091505b50509050806106735760405162461bcd60e51b815260206004820152600f60248201526e15da5d1a191c985dc819985a5b1959608a1b6044820152606401610550565b610673338383610d8a565b610a0f610e6b565b60008381526007602052604081208054610a2890611f71565b905011610a655760405162461bcd60e51b815260206004820152600b60248201526a155492481b9bdd081cd95d60aa1b6044820152606401610550565b600083815260086020526040902054610ab05760405162461bcd60e51b815260206004820152600d60248201526c141c9a58d9481b9bdd081cd95d609a1b6044820152606401610550565b60008381526009602052604090205460ff16610b035760405162461bcd60e51b81526020600482015260126024820152714d696e74696e67206e6f742061637469766560701b6044820152606401610550565b610b0d33846104e9565b15610b4b5760405162461bcd60e51b815260206004820152600e60248201526d105b1c9958591e481b5a5b9d195960921b6044820152606401610550565b8015610b9c576040805130602082015233918101919091526060810184905234608082015260009060a0016040516020818303038152906040529050610b966005828585600a610ec5565b50610beb565b6000838152600860205260409020543414610beb5760405162461bcd60e51b815260206004820152600f60248201526e496e636f72726563742076616c756560881b6044820152606401610550565b610c073384600160405180602001604052806000815250610f6e565b6107406001600455565b610c19610cb7565b610673600582611082565b610c2c610cb7565b60009182526008602052604090912055565b610c46610cb7565b6001600160a01b038116610cab5760405162461bcd60e51b815260206004820152602660248201527f4f776e61626c653a206e6577206f776e657220697320746865207a65726f206160448201526564647265737360d01b6064820152608401610550565b610cb481610d2d565b50565b6003546001600160a01b031633146108ff5760405162461bcd60e51b815260206004820181905260248201527f4f776e61626c653a2063616c6c6572206973206e6f7420746865206f776e65726044820152606401610550565b6000610d26836001600160a01b038416611097565b9392505050565b600380546001600160a01b038381166001600160a01b0319831681179093556040519116919082907f8be0079c531659141344cd1fd0a4f28419497f9722a3daafe3b4186f6b6457e090600090a35050565b600061057c8261118a565b816001600160a01b0316836001600160a01b03161415610dfe5760405162461bcd60e51b815260206004820152602960248201527f455243313135353a2073657474696e6720617070726f76616c20737461747573604482015268103337b91039b2b63360b91b6064820152608401610550565b6001600160a01b03838116600081815260016020908152604080832094871680845294825291829020805460ff191686151590811790915591519182527f17307eab39ab6107e8899845ad3d59bd9653f200f220920489ca2b5937696c31910160405180910390a3505050565b60026004541415610ebe5760405162461bcd60e51b815260206004820152601f60248201527f5265656e7472616e637947756172643a207265656e7472616e742063616c6c006044820152606401610550565b6002600455565b6000610ed085610d7f565b60008181526020849052604090205490915060ff1615610f415760405162461bcd60e51b815260206004820152602660248201527f5369676e6174757265436865636b65723a204d65737361676520616c726561646044820152651e481d5cd95960d21b6064820152608401610550565b6000818152602083905260409020805460ff19166001179055610f66868286866111c5565b505050505050565b6001600160a01b038416610fce5760405162461bcd60e51b815260206004820152602160248201527f455243313135353a206d696e7420746f20746865207a65726f206164647265736044820152607360f81b6064820152608401610550565b336000610fda8561122f565b90506000610fe78561122f565b90506000868152602081815260408083206001600160a01b038b16845290915281208054879290611019908490611ff3565b909155505060408051878152602081018790526001600160a01b03808a1692600092918716917fc3d58168c5ae7397731d063d5bbf3d657854427343f4c083240f7aacaa2d0f62910160405180910390a46110798360008989898961127a565b50505050505050565b6000610d26836001600160a01b038416611426565b600081815260018301602052604081205480156111805760006110bb60018361200b565b85549091506000906110cf9060019061200b565b90508181146111345760008660000182815481106110ef576110ef611fac565b906000526020600020015490508087600001848154811061111257611112611fac565b6000918252602080832090910192909255918252600188019052604090208390555b855486908061114557611145612022565b60019003818190600052602060002001600090559055856001016000868152602001908152602001600020600090556001935050505061057c565b600091505061057c565b60006111968251611475565b826040516020016111a8929190612038565b604051602081830303815290604052805190602001209050919050565b6111d18484848461150a565b6112295760405162461bcd60e51b815260206004820152602360248201527f5369676e6174757265436865636b65723a20496e76616c6964207369676e617460448201526275726560e81b6064820152608401610550565b50505050565b6040805160018082528183019092526060916000919060208083019080368337019050509050828160008151811061126957611269611fac565b602090810291909101015292915050565b6001600160a01b0384163b15610f665760405163f23a6e6160e01b81526001600160a01b0385169063f23a6e61906112be9089908990889088908890600401612093565b602060405180830381600087803b1580156112d857600080fd5b505af1925050508015611308575060408051601f3d908101601f19168201909252611305918101906120d8565b60015b6113b5576113146120f5565b806308c379a0141561134e5750611329612111565b806113345750611350565b8060405162461bcd60e51b81526004016105509190611a37565b505b60405162461bcd60e51b815260206004820152603460248201527f455243313135353a207472616e7366657220746f206e6f6e2d455243313135356044820152732932b1b2b4bb32b91034b6b83632b6b2b73a32b960611b6064820152608401610550565b6001600160e01b0319811663f23a6e6160e01b146110795760405162461bcd60e51b815260206004820152602860248201527f455243313135353a204552433131353552656365697665722072656a656374656044820152676420746f6b656e7360c01b6064820152608401610550565b600081815260018301602052604081205461146d5750815460018181018455600084815260208082209093018490558454848252828601909352604090209190915561057c565b50600061057c565b606060006114828361155f565b600101905060008167ffffffffffffffff8111156114a2576114a2611a7e565b6040519080825280601f01601f1916602001820160405280156114cc576020820181803683370190505b5090508181016020015b600019016f181899199a1a9b1b9c1cb0b131b232b360811b600a86061a8153600a8504945084611505576108cc565b6114d6565b600061155661154f8585858080601f01602080910402602001604051908101604052809392919081815260200183838082843760009201919091525061163792505050565b8690611653565b95945050505050565b60008072184f03e93ff9f4daa797ed6e38ed64bf6a1f0160401b831061159e5772184f03e93ff9f4daa797ed6e38ed64bf6a1f0160401b830492506040015b6d04ee2d6d415b85acef810000000083106115ca576d04ee2d6d415b85acef8100000000830492506020015b662386f26fc1000083106115e857662386f26fc10000830492506010015b6305f5e1008310611600576305f5e100830492506008015b612710831061161457612710830492506004015b60648310611626576064830492506002015b600a831061057c5760010192915050565b60008060006116468585611675565b915091506108cc816116bb565b6001600160a01b03811660009081526001830160205260408120541515610d26565b6000808251604114156116ac5760208301516040840151606085015160001a6116a087828585611809565b945094505050506116b4565b506000905060025b9250929050565b60008160048111156116cf576116cf61219b565b14156116d85750565b60018160048111156116ec576116ec61219b565b141561173a5760405162461bcd60e51b815260206004820152601860248201527f45434453413a20696e76616c6964207369676e617475726500000000000000006044820152606401610550565b600281600481111561174e5761174e61219b565b141561179c5760405162461bcd60e51b815260206004820152601f60248201527f45434453413a20696e76616c6964207369676e6174757265206c656e677468006044820152606401610550565b60038160048111156117b0576117b061219b565b1415610cb45760405162461bcd60e51b815260206004820152602260248201527f45434453413a20696e76616c6964207369676e6174757265202773272076616c604482015261756560f01b6064820152608401610550565b6000807f7fffffffffffffffffffffffffffffff5d576e7357a4501ddfe92f46681b20a083111561184057506000905060036118c4565b6040805160008082526020820180845289905260ff881692820192909252606081018690526080810185905260019060a0016020604051602081039080840390855afa158015611894573d6000803e3d6000fd5b5050604051601f1901519150506001600160a01b0381166118bd576000600192509250506118c4565b9150600090505b94509492505050565b8280546118d990611f71565b90600052602060002090601f0160209004810192826118fb5760008555611941565b82601f1061191457805160ff1916838001178555611941565b82800160010185558215611941579182015b82811115611941578251825591602001919060010190611926565b5061194d929150611951565b5090565b5b8082111561194d5760008155600101611952565b80356001600160a01b038116811461197d57600080fd5b919050565b6000806040838503121561199557600080fd5b61199e83611966565b946020939093013593505050565b6001600160e01b031981168114610cb457600080fd5b6000602082840312156119d457600080fd5b8135610d26816119ac565b60005b838110156119fa5781810151838201526020016119e2565b838111156112295750506000910152565b60008151808452611a238160208601602086016119df565b601f01601f19169290920160200192915050565b602081526000610d266020830184611a0b565b600060208284031215611a5c57600080fd5b610d2682611966565b600060208284031215611a7757600080fd5b5035919050565b634e487b7160e01b600052604160045260246000fd5b601f8201601f1916810167ffffffffffffffff81118282101715611aba57611aba611a7e565b6040525050565b600067ffffffffffffffff831115611adb57611adb611a7e565b604051611af2601f8501601f191660200182611a94565b809150838152848484011115611b0757600080fd5b83836020830137600060208583010152509392505050565b60008060408385031215611b3257600080fd5b82359150602083013567ffffffffffffffff811115611b5057600080fd5b8301601f81018513611b6157600080fd5b611b7085823560208401611ac1565b9150509250929050565b600067ffffffffffffffff821115611b9457611b94611a7e565b5060051b60200190565b600082601f830112611baf57600080fd5b81356020611bbc82611b7a565b604051611bc98282611a94565b83815260059390931b8501820192828101915086841115611be957600080fd5b8286015b84811015611c045780358352918301918301611bed565b509695505050505050565b600082601f830112611c2057600080fd5b610d2683833560208501611ac1565b600080600080600060a08688031215611c4757600080fd5b611c5086611966565b9450611c5e60208701611966565b9350604086013567ffffffffffffffff80821115611c7b57600080fd5b611c8789838a01611b9e565b94506060880135915080821115611c9d57600080fd5b611ca989838a01611b9e565b93506080880135915080821115611cbf57600080fd5b50611ccc88828901611c0f565b9150509295509295909350565b8035801515811461197d57600080fd5b60008060408385031215611cfc57600080fd5b82359150611d0c60208401611cd9565b90509250929050565b60008060408385031215611d2857600080fd5b823567ffffffffffffffff80821115611d4057600080fd5b818501915085601f830112611d5457600080fd5b81356020611d6182611b7a565b604051611d6e8282611a94565b83815260059390931b8501820192828101915089841115611d8e57600080fd5b948201945b83861015611db357611da486611966565b82529482019490820190611d93565b96505086013592505080821115611dc957600080fd5b50611b7085828601611b9e565b6020808252825182820181905260009190848201906040850190845b81811015611e0e57835183529284019291840191600101611df2565b50909695505050505050565b60008060408385031215611e2d57600080fd5b611e3683611966565b9150611d0c60208401611cd9565b600080600060408486031215611e5957600080fd5b83359250602084013567ffffffffffffffff80821115611e7857600080fd5b818601915086601f830112611e8c57600080fd5b813581811115611e9b57600080fd5b876020828501011115611ead57600080fd5b6020830194508093505050509250925092565b60008060408385031215611ed357600080fd5b611edc83611966565b9150611d0c60208401611966565b60008060408385031215611efd57600080fd5b50508035926020909101359150565b600080600080600060a08688031215611f2457600080fd5b611f2d86611966565b9450611f3b60208701611966565b93506040860135925060608601359150608086013567ffffffffffffffff811115611f6557600080fd5b611ccc88828901611c0f565b600181811c90821680611f8557607f821691505b60208210811415611fa657634e487b7160e01b600052602260045260246000fd5b50919050565b634e487b7160e01b600052603260045260246000fd5b634e487b7160e01b600052601160045260246000fd5b6000600019821415611fec57611fec611fc2565b5060010190565b6000821982111561200657612006611fc2565b500190565b60008282101561201d5761201d611fc2565b500390565b634e487b7160e01b600052603160045260246000fd5b7f19457468657265756d205369676e6564204d6573736167653a0a00000000000081526000835161207081601a8501602088016119df565b83519083019061208781601a8401602088016119df565b01601a01949350505050565b6001600160a01b03868116825285166020820152604081018490526060810183905260a0608082018190526000906120cd90830184611a0b565b979650505050505050565b6000602082840312156120ea57600080fd5b8151610d26816119ac565b600060033d111561210e5760046000803e5060005160e01c5b90565b600060443d101561211f5790565b6040516003193d81016004833e81513d67ffffffffffffffff816024840111818411171561214f57505050505090565b82850191508151818111156121675750505050505090565b843d87010160208285010111156121815750505050505090565b61219060208286010187611a94565b509095945050505050565b634e487b7160e01b600052602160045260246000fdfea264697066735822122098568baafd58c3c5bab345adb9114e67d4222f15ceb87a3504b787de2241ce9a64736f6c63430008090033",
  "devdoc": {
    "kind": "dev",
    "methods": {
      "balanceOf(address,uint256)": {
        "details": "See {IERC1155-balanceOf}. Requirements: - `account` cannot be the zero address."
      },
      "balanceOfBatch(address[],uint256[])": {
        "details": "See {IERC1155-balanceOfBatch}. Requirements: - `accounts` and `ids` must have the same length."
      },
      "isApprovedForAll(address,address)": {
        "details": "See {IERC1155-isApprovedForAll}."
      },
      "mint(uint256,bytes)": {
        "details": "Mint a token"
      },
      "owner()": {
        "details": "Returns the address of the current owner."
      },
      "renounceOwnership()": {
        "details": "Leaves the contract without owner. It will not be possible to call `onlyOwner` functions anymore. Can only be called by the current owner. NOTE: Renouncing ownership will leave the contract without an owner, thereby removing any functionality that is only available to the owner."
      },
      "safeBatchTransferFrom(address,address,uint256[],uint256[],bytes)": {
        "details": "Disable batch transfers"
      },
      "safeTransferFrom(address,address,uint256,uint256,bytes)": {
        "details": "Disable transfers"
      },
      "setApprovalForAll(address,bool)": {
        "details": "See {IERC1155-setApprovalForAll}."
      },
      "setMintingActive(uint256,bool)": {
        "details": "Set the minting active flag"
      },
      "setTokenPrice(uint256,uint256)": {
        "details": "Set a price for a token"
      },
      "setTokenURI(uint256,string)": {
        "details": "Set the metadata for a token",
        "params": {
          "_uri": "The metadata uri (e.g. ipfs://...)",
          "tokenId": "The token ID"
        }
      },
      "sigUsed(address,uint256)": {
        "details": "Helper to check if a signature has been used",
        "params": {
          "to": "The address to mint to",
          "tokenId": "The max number of tokens to mint"
        }
      },
      "supportsInterface(bytes4)": {
        "details": "See {IERC165-supportsInterface}."
      },
      "transferOwnership(address)": {
        "details": "Transfers ownership of the contract to a new account (`newOwner`). Can only be called by the current owner."
      },
      "uri(uint256)": {
        "details": "Return the URI for a token"
      },
      "withdrawEth()": {
        "details": "Withdraw ether to owner's wallet"
      }
    },
    "version": 1
  },
  "userdoc": {
    "kind": "user",
    "methods": {
      "addSigner(address)": {
        "notice": "Add an address to the set of accepted signers."
      },
      "removeSigner(address)": {
        "notice": "Remove an address previously added with addSigner()."
      }
    },
    "version": 1
  },
  "storageLayout": {
    "storage": [
      {
        "astId": 192,
        "contract": "contracts/Creator.sol:Creator",
        "label": "_balances",
        "offset": 0,
        "slot": "0",
        "type": "t_mapping(t_uint256,t_mapping(t_address,t_uint256))"
      },
      {
        "astId": 198,
        "contract": "contracts/Creator.sol:Creator",
        "label": "_operatorApprovals",
        "offset": 0,
        "slot": "1",
        "type": "t_mapping(t_address,t_mapping(t_address,t_bool))"
      },
      {
        "astId": 200,
        "contract": "contracts/Creator.sol:Creator",
        "label": "_uri",
        "offset": 0,
        "slot": "2",
        "type": "t_string_storage"
      },
      {
        "astId": 7,
        "contract": "contracts/Creator.sol:Creator",
        "label": "_owner",
        "offset": 0,
        "slot": "3",
        "type": "t_address"
      },
      {
        "astId": 123,
        "contract": "contracts/Creator.sol:Creator",
        "label": "_status",
        "offset": 0,
        "slot": "4",
        "type": "t_uint256"
      },
      {
        "astId": 4469,
        "contract": "contracts/Creator.sol:Creator",
        "label": "signers",
        "offset": 0,
        "slot": "5",
        "type": "t_struct(AddressSet)3682_storage"
      },
      {
        "astId": 3989,
        "contract": "contracts/Creator.sol:Creator",
        "label": "tokenURIs",
        "offset": 0,
        "slot": "7",
        "type": "t_mapping(t_uint256,t_string_storage)"
      },
      {
        "astId": 3993,
        "contract": "contracts/Creator.sol:Creator",
        "label": "tokenPrices",
        "offset": 0,
        "slot": "8",
        "type": "t_mapping(t_uint256,t_uint256)"
      },
      {
        "astId": 3997,
        "contract": "contracts/Creator.sol:Creator",
        "label": "mintingActive",
        "offset": 0,
        "slot": "9",
        "type": "t_mapping(t_uint256,t_bool)"
      },
      {
        "astId": 4001,
        "contract": "contracts/Creator.sol:Creator",
        "label": "usedMessages",
        "offset": 0,
        "slot": "10",
        "type": "t_mapping(t_bytes32,t_bool)"
      },
      {
        "astId": 4003,
        "contract": "contracts/Creator.sol:Creator",
        "label": "name",
        "offset": 0,
        "slot": "11",
        "type": "t_string_storage"
      },
      {
        "astId": 4005,
        "contract": "contracts/Creator.sol:Creator",
        "label": "symbol",
        "offset": 0,
        "slot": "12",
        "type": "t_string_storage"
      }
    ],
    "types": {
      "t_address": {
        "encoding": "inplace",
        "label": "address",
        "numberOfBytes": "20"
      },
      "t_array(t_bytes32)dyn_storage": {
        "base": "t_bytes32",
        "encoding": "dynamic_array",
        "label": "bytes32[]",
        "numberOfBytes": "32"
      },
      "t_bool": {
        "encoding": "inplace",
        "label": "bool",
        "numberOfBytes": "1"
      },
      "t_bytes32": {
        "encoding": "inplace",
        "label": "bytes32",
        "numberOfBytes": "32"
      },
      "t_mapping(t_address,t_bool)": {
        "encoding": "mapping",
        "key": "t_address",
        "label": "mapping(address => bool)",
        "numberOfBytes": "32",
        "value": "t_bool"
      },
      "t_mapping(t_address,t_mapping(t_address,t_bool))": {
        "encoding": "mapping",
        "key": "t_address",
        "label": "mapping(address => mapping(address => bool))",
        "numberOfBytes": "32",
        "value": "t_mapping(t_address,t_bool)"
      },
      "t_mapping(t_address,t_uint256)": {
        "encoding": "mapping",
        "key": "t_address",
        "label": "mapping(address => uint256)",
        "numberOfBytes": "32",
        "value": "t_uint256"
      },
      "t_mapping(t_bytes32,t_bool)": {
        "encoding": "mapping",
        "key": "t_bytes32",
        "label": "mapping(bytes32 => bool)",
        "numberOfBytes": "32",
        "value": "t_bool"
      },
      "t_mapping(t_bytes32,t_uint256)": {
        "encoding": "mapping",
        "key": "t_bytes32",
        "label": "mapping(bytes32 => uint256)",
        "numberOfBytes": "32",
        "value": "t_uint256"
      },
      "t_mapping(t_uint256,t_bool)": {
        "encoding": "mapping",
        "key": "t_uint256",
        "label": "mapping(uint256 => bool)",
        "numberOfBytes": "32",
        "value": "t_bool"
      },
      "t_mapping(t_uint256,t_mapping(t_address,t_uint256))": {
        "encoding": "mapping",
        "key": "t_uint256",
        "label": "mapping(uint256 => mapping(address => uint256))",
        "numberOfBytes": "32",
        "value": "t_mapping(t_address,t_uint256)"
      },
      "t_mapping(t_uint256,t_string_storage)": {
        "encoding": "mapping",
        "key": "t_uint256",
        "label": "mapping(uint256 => string)",
        "numberOfBytes": "32",
        "value": "t_string_storage"
      },
      "t_mapping(t_uint256,t_uint256)": {
        "encoding": "mapping",
        "key": "t_uint256",
        "label": "mapping(uint256 => uint256)",
        "numberOfBytes": "32",
        "value": "t_uint256"
      },
      "t_string_storage": {
        "encoding": "bytes",
        "label": "string",
        "numberOfBytes": "32"
      },
      "t_struct(AddressSet)3682_storage": {
        "encoding": "inplace",
        "label": "struct EnumerableSet.AddressSet",
        "members": [
          {
            "astId": 3681,
            "contract": "contracts/Creator.sol:Creator",
            "label": "_inner",
            "offset": 0,
            "slot": "0",
            "type": "t_struct(Set)3367_storage"
          }
        ],
        "numberOfBytes": "64"
      },
      "t_struct(Set)3367_storage": {
        "encoding": "inplace",
        "label": "struct EnumerableSet.Set",
        "members": [
          {
            "astId": 3362,
            "contract": "contracts/Creator.sol:Creator",
            "label": "_values",
            "offset": 0,
            "slot": "0",
            "type": "t_array(t_bytes32)dyn_storage"
          },
          {
            "astId": 3366,
            "contract": "contracts/Creator.sol:Creator",
            "label": "_indexes",
            "offset": 0,
            "slot": "1",
            "type": "t_mapping(t_bytes32,t_uint256)"
          }
        ],
        "numberOfBytes": "64"
      },
      "t_uint256": {
        "encoding": "inplace",
        "label": "uint256",
        "numberOfBytes": "32"
      }
    }
  }
}